:100000000C942A000C9447000C9447000C94470071
:100010000C9447000C9447000C9447000C94470044
:100020000C9447000C9447000C9447000C94470034
:100030000C9447000C9447000C9447000C94470024
:100040000C9447000C9447000C9447000C94470014
:100050000C94470011241FBECFE5D8E0DEBFCDBF12
:1000600010E0A0E6B0E0E6E3F3E002C005900D92F8
:10007000A839B107D9F720E0A8E9B0E001C01D9286
:10008000A939B207E1F70E9444010C9499010C943C
:10009000000084EA86BF06B607FEFDCF089583B947
:1000A00084E886BF06B607FEFDCF0895CF93DF93A1
:1000B000C82FD62F0E9449008D2F0E944F008C2FF1
:1000C0000E944F0084E986BFDF91CF910895CF93BE
:1000D000C82F90919800892F8460809398006EE4D7
:1000E0000E94560085E88A95F1F70000C295C07F0E
:1000F000809198006EE48C2B0E94560080919800AD
:100100008B7F809398006EE40E94560085E88A9564
:10011000F1F70000CF9108951F93CF93DF93182F2D
:10012000C82FD0E0D595C795D595C795D595C795D6
:10013000D595C795611109C0809198008E7F8093F5
:1001400098006EE40E94560008C08091980081607B
:10015000809398006EE40E9456008C2F0E946700E6
:10016000812F0E946700DF91CF911F910895CF9357
:10017000C82F809198008160809398006EE40E945F
:1001800056008C2F82958F700E9467008C2F0E94E2
:100190006700CF9108958FE295E70197F1F700C0CE
:1001A000000083E00E9467008FE39FE10197F1F771
:1001B00000C0000083E00E94670087EC90E0019798
:1001C000F1F700C0000083E00E9467008FEC97E029
:1001D0000197F1F700C0000082E00E9467008FECF9
:1001E00097E00197F1F700C0000060E088E20E940C
:1001F0008C008FEC97E00197F1F700C0000060E001
:100200008CE00E948C008FEC97E00197F1F700C022
:10021000000060E086E00E948C008FEC97E0019780
:10022000F1F700C0000080919800886080939800EA
:100230006EE40E945600809198008D7F8093980014
:100240006EE40E945600089560E081E00E948C00F8
:1002500087EB9BE00197F1F700C0000008951F9322
:10026000CF93DF93EC018881882351F010E00E9446
:10027000B7001F5FFE01E10FF11D80818111F7CFF3
:10028000DF91CF911F9108958FEF80B90E94CB002D
:100290000E94240180E690E00E942F010E94240128
:1002A0008DE690E00E942F012FEF89E698E1215022
:1002B00080409040E1F700C000000E94240184E7E4
:1002C00090E00E942F012FEF89E698E121508040B5
:1002D0009040E1F700C000000E9424018DE790E00B
:1002E0000E942F012FEF89E698E121508040904035
:1002F000E1F700C000000E94240160E080EC0E9451
:100300008C0086E890E00E942F012FEF89E698E1AB
:10031000215080409040E1F700C000000E9424017D
:1003200060E080EC0E948C008FE890E00E942F013A
:06033000B5CFF894FFCFE9
:1003360048656C6C6F20576F726C6421005465734E
:10034600742031005465737420312E310054657366
:100356007420312E32005465737420312E330054CC
:0803660065737420312E340090
:00000001FF
